{
  "transactions": [
    {
      "hash": "0x2aa68357233dac97d6aee228fab32628087ae4a0646977d65d44cb7cacba9374",
      "transactionType": "CALL",
      "contractName": null,
      "contractAddress": "0x779877a7b0d9e8603169ddbd7836e478b4624789",
      "function": "transferAndCall(address,uint256,bytes)",
      "arguments": [
        "0x9DdfaCa8183c41ad55329BdeeD9F6A8d53168B1B",
        "3000000000000000000",
        "0x48c61076f1dc7ac6769aaa0b782601a17de1a15048474db8e7fc79bae9e90fd1"
      ],
      "transaction": {
        "from": "0xe9599e4b31f0b86243a81c5ec16c87e42278ce19",
        "to": "0x779877a7b0d9e8603169ddbd7836e478b4624789",
        "gas": "0x14cbb",
        "value": "0x0",
        "input": "0x4000aea00000000000000000000000009ddfaca8183c41ad55329bdeed9f6a8d53168b1b00000000000000000000000000000000000000000000000029a2241af62c00000000000000000000000000000000000000000000000000000000000000000060000000000000000000000000000000000000000000000000000000000000002048c61076f1dc7ac6769aaa0b782601a17de1a15048474db8e7fc79bae9e90fd1",
        "nonce": "0x1b",
        "chainId": "0xaa36a7"
      },
      "additionalContracts": [],
      "isFixedGasLimit": false
    }
  ],
  "receipts": [
    {
      "status": "0x1",
      "cumulativeGasUsed": "0xce5844",
      "logs": [
        {
          "address": "0x779877a7b0d9e8603169ddbd7836e478b4624789",
          "topics": [
            "0xddf252ad1be2c89b69c2b068fc378daa952ba7f163c4a11628f55a4df523b3ef",
            "0x000000000000000000000000e9599e4b31f0b86243a81c5ec16c87e42278ce19",
            "0x0000000000000000000000009ddfaca8183c41ad55329bdeed9f6a8d53168b1b"
          ],
          "data": "0x00000000000000000000000000000000000000000000000029a2241af62c0000",
          "blockHash": "0xefa01f6cf2d188a982f47e1cb1319f195805da39705a4053fb9bb0b4bcd26d3d",
          "blockNumber": "0x874931",
          "blockTimestamp": "0x688861f8",
          "transactionHash": "0x2aa68357233dac97d6aee228fab32628087ae4a0646977d65d44cb7cacba9374",
          "transactionIndex": "0x81",
          "logIndex": "0x119",
          "removed": false
        },
        {
          "address": "0x779877a7b0d9e8603169ddbd7836e478b4624789",
          "topics": [
            "0xe19260aff97b920c7df27010903aeb9c8d2be5d310a2c67824cf3f15396e4c16",
            "0x000000000000000000000000e9599e4b31f0b86243a81c5ec16c87e42278ce19",
            "0x0000000000000000000000009ddfaca8183c41ad55329bdeed9f6a8d53168b1b"
          ],
          "data": "0x00000000000000000000000000000000000000000000000029a2241af62c00000000000000000000000000000000000000000000000000000000000000000040000000000000000000000000000000000000000000000000000000000000002048c61076f1dc7ac6769aaa0b782601a17de1a15048474db8e7fc79bae9e90fd1",
          "blockHash": "0xefa01f6cf2d188a982f47e1cb1319f195805da39705a4053fb9bb0b4bcd26d3d",
          "blockNumber": "0x874931",
          "blockTimestamp": "0x688861f8",
          "transactionHash": "0x2aa68357233dac97d6aee228fab32628087ae4a0646977d65d44cb7cacba9374",
          "transactionIndex": "0x81",
          "logIndex": "0x11a",
          "removed": false
        },
        {
          "address": "0x9ddfaca8183c41ad55329bdeed9f6a8d53168b1b",
          "topics": [
            "0x1ced9348ff549fceab2ac57cd3a9de38edaaab274b725ee82c23e8fc8c4eec7a",
            "0x48c61076f1dc7ac6769aaa0b782601a17de1a15048474db8e7fc79bae9e90fd1"
          ],
          "data": "0x0000000000000000000000000000000000000000000000008ac7230489e80000000000000000000000000000000000000000000000000000b469471f80140000",
          "blockHash": "0xefa01f6cf2d188a982f47e1cb1319f195805da39705a4053fb9bb0b4bcd26d3d",
          "blockNumber": "0x874931",
          "blockTimestamp": "0x688861f8",
          "transactionHash": "0x2aa68357233dac97d6aee228fab32628087ae4a0646977d65d44cb7cacba9374",
          "transactionIndex": "0x81",
          "logIndex": "0x11b",
          "removed": false
        }
      ],
      "logsBloom": "0x00000004000000000000000000000000000000000020008000000000020000000000000000000000000000000000000000000001000000000000000000000000000000000000000000000008000000000000000000000000000020000020000008000000000000000000000000000000000000000000400000000010000040000020000000000000000000010000800000000020000000000000000000000000000000000000000000000000010000000000000100000000000004000000000000000002000100000000000000000000000000000000000100000000000000000010000000000000800000000000000000000000000000000000000000000000",
      "type": "0x2",
      "transactionHash": "0x2aa68357233dac97d6aee228fab32628087ae4a0646977d65d44cb7cacba9374",
      "transactionIndex": "0x81",
      "blockHash": "0xefa01f6cf2d188a982f47e1cb1319f195805da39705a4053fb9bb0b4bcd26d3d",
      "blockNumber": "0x874931",
      "gasUsed": "0xf0e5",
      "effectiveGasPrice": "0x1ec4bb",
      "from": "0xe9599e4b31f0b86243a81c5ec16c87e42278ce19",
      "to": "0x779877a7b0d9e8603169ddbd7836e478b4624789",
      "contractAddress": null
    }
  ],
  "libraries": [],
  "pending": [],
  "returns": {},
  "timestamp": 1753768441,
  "chain": 11155111,
  "commit": "103a572"
}